{
  "contractName": "DecentralizedProgressiveJackpotRaffle",
  "abi": [
    {
      "inputs": [
        {
          "internalType": "uint256",
          "name": "_ticketPrice",
          "type": "uint256"
        },
        {
          "internalType": "uint8",
          "name": "_jackpotPercentage",
          "type": "uint8"
        },
        {
          "internalType": "uint256",
          "name": "_maxTicketsPerPurchase",
          "type": "uint256"
        },
        {
          "internalType": "uint256",
          "name": "_raffleDuration",
          "type": "uint256"
        },
        {
          "internalType": "uint256",
          "name": "_claimPeriod",
          "type": "uint256"
        }
      ],
      "stateMutability": "nonpayable",
      "type": "constructor"
    },
    {
      "anonymous": false,
      "inputs": [
        {
          "indexed": true,
          "internalType": "address",
          "name": "winner",
          "type": "address"
        },
        {
          "indexed": false,
          "internalType": "uint256",
          "name": "amount",
          "type": "uint256"
        }
      ],
      "name": "JackpotClaimed",
      "type": "event"
    },
    {
      "anonymous": false,
      "inputs": [
        {
          "indexed": false,
          "internalType": "uint256",
          "name": "amount",
          "type": "uint256"
        }
      ],
      "name": "JackpotUnclaimed",
      "type": "event"
    },
    {
      "anonymous": false,
      "inputs": [
        {
          "indexed": true,
          "internalType": "uint256",
          "name": "winningTicketId",
          "type": "uint256"
        },
        {
          "indexed": true,
          "internalType": "address",
          "name": "winner",
          "type": "address"
        }
      ],
      "name": "RaffleEnded",
      "type": "event"
    },
    {
      "anonymous": false,
      "inputs": [
        {
          "indexed": true,
          "internalType": "address",
          "name": "buyer",
          "type": "address"
        },
        {
          "indexed": false,
          "internalType": "uint256",
          "name": "startTicketId",
          "type": "uint256"
        },
        {
          "indexed": false,
          "internalType": "uint256",
          "name": "amount",
          "type": "uint256"
        }
      ],
      "name": "TicketsPurchased",
      "type": "event"
    },
    {
      "inputs": [],
      "name": "claimPeriod",
      "outputs": [
        {
          "internalType": "uint256",
          "name": "",
          "type": "uint256"
        }
      ],
      "stateMutability": "view",
      "type": "function",
      "constant": true
    },
    {
      "inputs": [],
      "name": "endTime",
      "outputs": [
        {
          "internalType": "uint256",
          "name": "",
          "type": "uint256"
        }
      ],
      "stateMutability": "view",
      "type": "function",
      "constant": true
    },
    {
      "inputs": [],
      "name": "jackpotAmount",
      "outputs": [
        {
          "internalType": "uint256",
          "name": "",
          "type": "uint256"
        }
      ],
      "stateMutability": "view",
      "type": "function",
      "constant": true
    },
    {
      "inputs": [],
      "name": "jackpotClaimed",
      "outputs": [
        {
          "internalType": "bool",
          "name": "",
          "type": "bool"
        }
      ],
      "stateMutability": "view",
      "type": "function",
      "constant": true
    },
    {
      "inputs": [],
      "name": "jackpotPercentage",
      "outputs": [
        {
          "internalType": "uint8",
          "name": "",
          "type": "uint8"
        }
      ],
      "stateMutability": "view",
      "type": "function",
      "constant": true
    },
    {
      "inputs": [],
      "name": "maxTicketsPerPurchase",
      "outputs": [
        {
          "internalType": "uint256",
          "name": "",
          "type": "uint256"
        }
      ],
      "stateMutability": "view",
      "type": "function",
      "constant": true
    },
    {
      "inputs": [],
      "name": "owner",
      "outputs": [
        {
          "internalType": "address",
          "name": "",
          "type": "address"
        }
      ],
      "stateMutability": "view",
      "type": "function",
      "constant": true
    },
    {
      "inputs": [],
      "name": "platformFees",
      "outputs": [
        {
          "internalType": "uint256",
          "name": "",
          "type": "uint256"
        }
      ],
      "stateMutability": "view",
      "type": "function",
      "constant": true
    },
    {
      "inputs": [],
      "name": "raffleEnded",
      "outputs": [
        {
          "internalType": "bool",
          "name": "",
          "type": "bool"
        }
      ],
      "stateMutability": "view",
      "type": "function",
      "constant": true
    },
    {
      "inputs": [
        {
          "internalType": "uint256",
          "name": "",
          "type": "uint256"
        }
      ],
      "name": "ticketOwner",
      "outputs": [
        {
          "internalType": "address",
          "name": "",
          "type": "address"
        }
      ],
      "stateMutability": "view",
      "type": "function",
      "constant": true
    },
    {
      "inputs": [],
      "name": "ticketPrice",
      "outputs": [
        {
          "internalType": "uint256",
          "name": "",
          "type": "uint256"
        }
      ],
      "stateMutability": "view",
      "type": "function",
      "constant": true
    },
    {
      "inputs": [
        {
          "internalType": "address",
          "name": "",
          "type": "address"
        },
        {
          "internalType": "uint256",
          "name": "",
          "type": "uint256"
        }
      ],
      "name": "ticketsByOwner",
      "outputs": [
        {
          "internalType": "uint256",
          "name": "",
          "type": "uint256"
        }
      ],
      "stateMutability": "view",
      "type": "function",
      "constant": true
    },
    {
      "inputs": [],
      "name": "totalTickets",
      "outputs": [
        {
          "internalType": "uint256",
          "name": "",
          "type": "uint256"
        }
      ],
      "stateMutability": "view",
      "type": "function",
      "constant": true
    },
    {
      "inputs": [],
      "name": "winner",
      "outputs": [
        {
          "internalType": "address",
          "name": "",
          "type": "address"
        }
      ],
      "stateMutability": "view",
      "type": "function",
      "constant": true
    },
    {
      "inputs": [],
      "name": "winningTicketId",
      "outputs": [
        {
          "internalType": "uint256",
          "name": "",
          "type": "uint256"
        }
      ],
      "stateMutability": "view",
      "type": "function",
      "constant": true
    },
    {
      "inputs": [
        {
          "internalType": "uint256",
          "name": "numTickets",
          "type": "uint256"
        }
      ],
      "name": "purchaseTickets",
      "outputs": [],
      "stateMutability": "payable",
      "type": "function",
      "payable": true
    },
    {
      "inputs": [],
      "name": "endRaffle",
      "outputs": [],
      "stateMutability": "nonpayable",
      "type": "function"
    },
    {
      "inputs": [],
      "name": "claimJackpot",
      "outputs": [],
      "stateMutability": "nonpayable",
      "type": "function"
    },
    {
      "inputs": [],
      "name": "handleUnclaimedJackpot",
      "outputs": [],
      "stateMutability": "nonpayable",
      "type": "function"
    },
    {
      "inputs": [],
      "name": "withdrawPlatformFees",
      "outputs": [],
      "stateMutability": "nonpayable",
      "type": "function"
    },
    {
      "inputs": [
        {
          "internalType": "address",
          "name": "player",
          "type": "address"
        }
      ],
      "name": "getTicketsByOwner",
      "outputs": [
        {
          "internalType": "uint256[]",
          "name": "",
          "type": "uint256[]"
        }
      ],
      "stateMutability": "view",
      "type": "function",
      "constant": true
    },
    {
      "inputs": [],
      "name": "getRaffleState",
      "outputs": [
        {
          "internalType": "uint256",
          "name": "",
          "type": "uint256"
        },
        {
          "internalType": "uint256",
          "name": "",
          "type": "uint256"
        },
        {
          "internalType": "uint256",
          "name": "",
          "type": "uint256"
        },
        {
          "internalType": "bool",
          "name": "",
          "type": "bool"
        }
      ],
      "stateMutability": "view",
      "type": "function",
      "constant": true
    }
  ],
  "bytecode": "0x60806040523480156200001157600080fd5b50604051620027013803806200270183398181016040528101906200003791906200029b565b600085116200007d576040517f08c379a0000000000000000000000000000000000000000000000000000000008152600401620000749062000547565b60405180910390fd5b60008460ff1611801562000094575060648460ff16105b620000d6576040517f08c379a0000000000000000000000000000000000000000000000000000000008152600401620000cd9062000569565b60405180910390fd5b600083116200011c576040517f08c379a00000000000000000000000000000000000000000000000000000000081526004016200011390620005ad565b60405180910390fd5b6000821162000162576040517f08c379a000000000000000000000000000000000000000000000000000000000815260040162000159906200058b565b60405180910390fd5b60008111620001a8576040517f08c379a00000000000000000000000000000000000000000000000000000000081526004016200019f9062000525565b60405180910390fd5b336000806101000a81548173ffffffffffffffffffffffffffffffffffffffff021916908373ffffffffffffffffffffffffffffffffffffffff1602179055508460018190555083600260006101000a81548160ff021916908360ff1602179055508260038190555081426200021f9190620005e0565b60048190555080600a819055506000600860006101000a81548160ff0219169083151502179055506000600b60006101000a81548160ff0219169083151502179055505050505050620006b7565b6000815190506200027e8162000683565b92915050565b60008151905062000295816200069d565b92915050565b600080600080600060a08688031215620002b457600080fd5b6000620002c4888289016200026d565b9550506020620002d78882890162000284565b9450506040620002ea888289016200026d565b9350506060620002fd888289016200026d565b925050608062000310888289016200026d565b9150509295509295909350565b60006200032c602683620005cf565b91507f436c61696d20706572696f64206d75737420626520677265617465722074686160008301527f6e207a65726f00000000000000000000000000000000000000000000000000006020830152604082019050919050565b600062000394602683620005cf565b91507f5469636b6574207072696365206d75737420626520677265617465722074686160008301527f6e207a65726f00000000000000000000000000000000000000000000000000006020830152604082019050919050565b6000620003fc602b83620005cf565b91507f4a61636b706f742070657263656e74616765206d75737420626520626574776560008301527f656e203120616e642039390000000000000000000000000000000000000000006020830152604082019050919050565b600062000464602983620005cf565b91507f526166666c65206475726174696f6e206d75737420626520677265617465722060008301527f7468616e207a65726f00000000000000000000000000000000000000000000006020830152604082019050919050565b6000620004cc603283620005cf565b91507f4d6178207469636b65747320706572207075726368617365206d75737420626560008301527f2067726561746572207468616e207a65726f00000000000000000000000000006020830152604082019050919050565b6000602082019050818103600083015262000540816200031d565b9050919050565b60006020820190508181036000830152620005628162000385565b9050919050565b600060208201905081810360008301526200058481620003ed565b9050919050565b60006020820190508181036000830152620005a68162000455565b9050919050565b60006020820190508181036000830152620005c881620004bd565b9050919050565b600082825260208201905092915050565b6000620005ed826200063d565b9150620005fa836200063d565b9250827fffffffffffffffffffffffffffffffffffffffffffffffffffffffffffffffff0382111562000632576200063162000654565b5b828201905092915050565b6000819050919050565b600060ff82169050919050565b7f4e487b7100000000000000000000000000000000000000000000000000000000600052601160045260246000fd5b6200068e816200063d565b81146200069a57600080fd5b50565b620006a88162000647565b8114620006b457600080fd5b50565b61203a80620006c76000396000f3fe6080604052600436106101355760003560e01c80638da5cb5b116100ab578063d0b7830b1161006f578063d0b7830b146103ee578063d0ccc8f914610405578063dd11247e14610442578063dfbf53ae1461046d578063e288ea6414610498578063ee095c0e146104af57610135565b80638da5cb5b14610314578063a12776001461033f578063a7380ec21461035b578063b1eac37e14610386578063c2ff12fc146103b157610135565b806367aa23e2116100fd57806367aa23e2146102145780636b762daa146102515780637cf210f11461027c5780637dc2cd98146102a757806381092eea146102d25780638322062b146102fd57610135565b8063115cbaf51461013a5780631209b1f614610168578063194a4e7e146101935780631cc41bba146101be5780633197cbb6146101e9575b600080fd5b34801561014657600080fd5b5061014f6104c6565b60405161015f9493929190611cc1565b60405180910390f35b34801561017457600080fd5b5061017d610528565b60405161018a9190611c7d565b60405180910390f35b34801561019f57600080fd5b506101a861052e565b6040516101b59190611c7d565b60405180910390f35b3480156101ca57600080fd5b506101d3610534565b6040516101e09190611a82565b60405180910390f35b3480156101f557600080fd5b506101fe610547565b60405161020b9190611c7d565b60405180910390f35b34801561022057600080fd5b5061023b600480360381019061023691906113a7565b61054d565b6040516102489190611a60565b60405180910390f35b34801561025d57600080fd5b506102666105e4565b6040516102739190611a82565b60405180910390f35b34801561028857600080fd5b506102916105f7565b60405161029e9190611d06565b60405180910390f35b3480156102b357600080fd5b506102bc61060a565b6040516102c99190611c7d565b60405180910390f35b3480156102de57600080fd5b506102e7610610565b6040516102f49190611c7d565b60405180910390f35b34801561030957600080fd5b50610312610616565b005b34801561032057600080fd5b506103296108c6565b6040516103369190611a45565b60405180910390f35b6103596004803603810190610354919061140c565b6108ea565b005b34801561036757600080fd5b50610370610c4e565b60405161037d9190611c7d565b60405180910390f35b34801561039257600080fd5b5061039b610c54565b6040516103a89190611c7d565b60405180910390f35b3480156103bd57600080fd5b506103d860048036038101906103d3919061140c565b610c5a565b6040516103e59190611a45565b60405180910390f35b3480156103fa57600080fd5b50610403610c8d565b005b34801561041157600080fd5b5061042c600480360381019061042791906113d0565b610dfb565b6040516104399190611c7d565b60405180910390f35b34801561044e57600080fd5b50610457610e2c565b6040516104649190611c7d565b60405180910390f35b34801561047957600080fd5b50610482610e32565b60405161048f9190611a45565b60405180910390f35b3480156104a457600080fd5b506104ad610e58565b005b3480156104bb57600080fd5b506104c46110f3565b005b6000806000806000600860009054906101000a900460ff161580156104ec575060045442105b1561050257426004546104ff9190611e57565b90505b60055460065482600860009054906101000a900460ff1694509450945094505090919293565b60015481565b60075481565b600b60009054906101000a900460ff1681565b60045481565b6060600c60008373ffffffffffffffffffffffffffffffffffffffff1673ffffffffffffffffffffffffffffffffffffffff1681526020019081526020016000208054806020026020016040519081016040528092919081815260200182805480156105d857602002820191906000526020600020905b8154815260200190600101908083116105c4575b50505050509050919050565b600860009054906101000a900460ff1681565b600260009054906101000a900460ff1681565b600a5481565b60035481565b60008054906101000a900473ffffffffffffffffffffffffffffffffffffffff1673ffffffffffffffffffffffffffffffffffffffff163373ffffffffffffffffffffffffffffffffffffffff16146106a4576040517f08c379a000000000000000000000000000000000000000000000000000000000815260040161069b90611add565b60405180910390fd5b600860009054906101000a900460ff166106f3576040517f08c379a00000000000000000000000000000000000000000000000000000000081526004016106ea90611b1d565b60405180910390fd5b600b60009054906101000a900460ff1615610743576040517f08c379a000000000000000000000000000000000000000000000000000000000815260040161073a90611b5d565b60405180910390fd5b600a546004546107539190611d76565b4211610794576040517f08c379a000000000000000000000000000000000000000000000000000000000815260040161078b90611a9d565b60405180910390fd5b6000600654905060006006819055506001600b60006101000a81548160ff02191690831515021790555060008060009054906101000a900473ffffffffffffffffffffffffffffffffffffffff1673ffffffffffffffffffffffffffffffffffffffff168260405161080590611a30565b60006040518083038185875af1925050503d8060008114610842576040519150601f19603f3d011682016040523d82523d6000602084013e610847565b606091505b505090508061088b576040517f08c379a000000000000000000000000000000000000000000000000000000000815260040161088290611c3d565b60405180910390fd5b7f39ca98332c91f6c3d3243eb3d4afba7c931885cb3a535f865ad65a5f60f0b29f826040516108ba9190611c7d565b60405180910390a15050565b60008054906101000a900473ffffffffffffffffffffffffffffffffffffffff1681565b600860009054906101000a900460ff161561093a576040517f08c379a000000000000000000000000000000000000000000000000000000000815260040161093190611b3d565b60405180910390fd5b600454421061097e576040517f08c379a000000000000000000000000000000000000000000000000000000000815260040161097590611afd565b60405180910390fd5b600081116109c1576040517f08c379a00000000000000000000000000000000000000000000000000000000081526004016109b890611bbd565b60405180910390fd5b600354811115610a06576040517f08c379a00000000000000000000000000000000000000000000000000000000081526004016109fd90611c5d565b60405180910390fd5b80600154610a149190611dfd565b3414610a55576040517f08c379a0000000000000000000000000000000000000000000000000000000008152600401610a4c90611b7d565b60405180910390fd5b60006064600260009054906101000a900460ff1660ff1634610a779190611dfd565b610a819190611dcc565b905060008134610a919190611e57565b90508160066000828254610aa59190611d76565b925050819055508060076000828254610abe9190611d76565b925050819055506000600554905060005b84811015610bde57600081600554610ae79190611d76565b9050600c60003373ffffffffffffffffffffffffffffffffffffffff1673ffffffffffffffffffffffffffffffffffffffff16815260200190815260200160002081908060018154018082558091505060019003906000526020600020016000909190919091505533600d600083815260200190815260200160002060006101000a81548173ffffffffffffffffffffffffffffffffffffffff021916908373ffffffffffffffffffffffffffffffffffffffff160217905550600e819080600181540180825580915050600190039060005260206000200160009091909190915055508080610bd690611eea565b915050610acf565b508360056000828254610bf19190611d76565b925050819055503373ffffffffffffffffffffffffffffffffffffffff167f7d58f5ddf17a7f65d89554f5d8144ae1dc788046467927063c090f92ed1145dc8286604051610c40929190611c98565b60405180910390a250505050565b60095481565b60065481565b600d6020528060005260406000206000915054906101000a900473ffffffffffffffffffffffffffffffffffffffff1681565b60008054906101000a900473ffffffffffffffffffffffffffffffffffffffff1673ffffffffffffffffffffffffffffffffffffffff163373ffffffffffffffffffffffffffffffffffffffff1614610d1b576040517f08c379a0000000000000000000000000000000000000000000000000000000008152600401610d1290611add565b60405180910390fd5b60006007549050600060078190555060008060009054906101000a900473ffffffffffffffffffffffffffffffffffffffff1673ffffffffffffffffffffffffffffffffffffffff1682604051610d7190611a30565b60006040518083038185875af1925050503d8060008114610dae576040519150601f19603f3d011682016040523d82523d6000602084013e610db3565b606091505b5050905080610df7576040517f08c379a0000000000000000000000000000000000000000000000000000000008152600401610dee90611bdd565b60405180910390fd5b5050565b600c6020528160005260406000208181548110610e1757600080fd5b90600052602060002001600091509150505481565b60055481565b600860019054906101000a900473ffffffffffffffffffffffffffffffffffffffff1681565b600860009054906101000a900460ff16610ea7576040517f08c379a0000000000000000000000000000000000000000000000000000000008152600401610e9e90611b1d565b60405180910390fd5b600860019054906101000a900473ffffffffffffffffffffffffffffffffffffffff1673ffffffffffffffffffffffffffffffffffffffff163373ffffffffffffffffffffffffffffffffffffffff1614610f37576040517f08c379a0000000000000000000000000000000000000000000000000000000008152600401610f2e90611abd565b60405180910390fd5b600b60009054906101000a900460ff1615610f87576040517f08c379a0000000000000000000000000000000000000000000000000000000008152600401610f7e90611b5d565b60405180910390fd5b6001600b60006101000a81548160ff0219169083151502179055506000600654905060006006819055506000600860019054906101000a900473ffffffffffffffffffffffffffffffffffffffff1673ffffffffffffffffffffffffffffffffffffffff1682604051610ff990611a30565b60006040518083038185875af1925050503d8060008114611036576040519150601f19603f3d011682016040523d82523d6000602084013e61103b565b606091505b505090508061107f576040517f08c379a000000000000000000000000000000000000000000000000000000000815260040161107690611c1d565b60405180910390fd5b600860019054906101000a900473ffffffffffffffffffffffffffffffffffffffff1673ffffffffffffffffffffffffffffffffffffffff167fac60f66c42c2943a0817462a4691f53514a36d94c99cf61e23a6215befcbc428836040516110e79190611c7d565b60405180910390a25050565b600860009054906101000a900460ff168061111057506004544210155b61114f576040517f08c379a000000000000000000000000000000000000000000000000000000000815260040161114690611b9d565b60405180910390fd5b600860009054906101000a900460ff161561119f576040517f08c379a000000000000000000000000000000000000000000000000000000000815260040161119690611b3d565b60405180910390fd5b6000600554116111e4576040517f08c379a00000000000000000000000000000000000000000000000000000000081526004016111db90611bfd565b60405180910390fd5b6001600860006101000a81548160ff021916908315150217905550600060014361120e9190611e57565b404260055460065460405160200161122994939291906119e2565b6040516020818303038152906040528051906020012060001c9050600e600554826112549190611f47565b8154811061128b577f4e487b7100000000000000000000000000000000000000000000000000000000600052603260045260246000fd5b9060005260206000200154600981905550600d6000600954815260200190815260200160002060009054906101000a900473ffffffffffffffffffffffffffffffffffffffff16600860016101000a81548173ffffffffffffffffffffffffffffffffffffffff021916908373ffffffffffffffffffffffffffffffffffffffff160217905550600860019054906101000a900473ffffffffffffffffffffffffffffffffffffffff1673ffffffffffffffffffffffffffffffffffffffff166009547fa922b20e4f61e77315db9dd65baa003ba27d2cb5247bc17b9c71d02b94792d5660405160405180910390a350565b60008135905061138c81611fd6565b92915050565b6000813590506113a181611fed565b92915050565b6000602082840312156113b957600080fd5b60006113c78482850161137d565b91505092915050565b600080604083850312156113e357600080fd5b60006113f18582860161137d565b925050602061140285828601611392565b9150509250929050565b60006020828403121561141e57600080fd5b600061142c84828501611392565b91505092915050565b6000611441838361199e565b60208301905092915050565b61145681611e8b565b82525050565b600061146782611d31565b6114718185611d49565b935061147c83611d21565b8060005b838110156114ad5781516114948882611435565b975061149f83611d3c565b925050600181019050611480565b5085935050505092915050565b6114c381611e9d565b82525050565b6114da6114d582611ea9565b611f33565b82525050565b60006114ed601c83611d65565b91507f436c61696d20706572696f64206e6f74207965742065787069726564000000006000830152602082019050919050565b600061152d602583611d65565b91507f4f6e6c79207468652077696e6e65722063616e20636c61696d20746865206a6160008301527f636b706f740000000000000000000000000000000000000000000000000000006020830152604082019050919050565b6000611593602183611d65565b91507f4f6e6c79206f776e65722063616e2063616c6c20746869732066756e6374696f60008301527f6e000000000000000000000000000000000000000000000000000000000000006020830152604082019050919050565b60006115f9601783611d65565b91507f526166666c652074696d652068617320657870697265640000000000000000006000830152602082019050919050565b6000611639601883611d65565b91507f526166666c6520686173206e6f7420656e6465642079657400000000000000006000830152602082019050919050565b6000611679601883611d65565b91507f526166666c652068617320616c726561647920656e64656400000000000000006000830152602082019050919050565b60006116b9602083611d65565b91507f4a61636b706f742068617320616c7265616479206265656e20636c61696d65646000830152602082019050919050565b60006116f9601983611d65565b91507f496e636f72726563742045544820616d6f756e742073656e74000000000000006000830152602082019050919050565b6000611739601683611d65565b91507f526166666c65206973207374696c6c20616374697665000000000000000000006000830152602082019050919050565b6000611779602183611d65565b91507f4d757374207075726368617365206174206c65617374206f6e65207469636b6560008301527f74000000000000000000000000000000000000000000000000000000000000006020830152604082019050919050565b60006117df602583611d65565b91507f4661696c656420746f2073656e6420706c6174666f726d206665657320746f2060008301527f6f776e65720000000000000000000000000000000000000000000000000000006020830152604082019050919050565b6000611845601483611d65565b91507f4e6f207469636b657473207765726520736f6c640000000000000000000000006000830152602082019050919050565b6000611885602083611d65565b91507f4661696c656420746f2073656e64206a61636b706f7420746f2077696e6e65726000830152602082019050919050565b60006118c5602983611d65565b91507f4661696c656420746f2073656e6420756e636c61696d6564206a61636b706f7460008301527f20746f206f776e657200000000000000000000000000000000000000000000006020830152604082019050919050565b600061192b603983611d65565b91507f43616e6e6f74207075726368617365206d6f7265207468616e206d6178696d7560008301527f6d207469636b65747320706572207472616e73616374696f6e000000000000006020830152604082019050919050565b6000611991600083611d5a565b9150600082019050919050565b6119a781611ed3565b82525050565b6119b681611ed3565b82525050565b6119cd6119c882611ed3565b611f3d565b82525050565b6119dc81611edd565b82525050565b60006119ee82876114c9565b6020820191506119fe82866119bc565b602082019150611a0e82856119bc565b602082019150611a1e82846119bc565b60208201915081905095945050505050565b6000611a3b82611984565b9150819050919050565b6000602082019050611a5a600083018461144d565b92915050565b60006020820190508181036000830152611a7a818461145c565b905092915050565b6000602082019050611a9760008301846114ba565b92915050565b60006020820190508181036000830152611ab6816114e0565b9050919050565b60006020820190508181036000830152611ad681611520565b9050919050565b60006020820190508181036000830152611af681611586565b9050919050565b60006020820190508181036000830152611b16816115ec565b9050919050565b60006020820190508181036000830152611b368161162c565b9050919050565b60006020820190508181036000830152611b568161166c565b9050919050565b60006020820190508181036000830152611b76816116ac565b9050919050565b60006020820190508181036000830152611b96816116ec565b9050919050565b60006020820190508181036000830152611bb68161172c565b9050919050565b60006020820190508181036000830152611bd68161176c565b9050919050565b60006020820190508181036000830152611bf6816117d2565b9050919050565b60006020820190508181036000830152611c1681611838565b9050919050565b60006020820190508181036000830152611c3681611878565b9050919050565b60006020820190508181036000830152611c56816118b8565b9050919050565b60006020820190508181036000830152611c768161191e565b9050919050565b6000602082019050611c9260008301846119ad565b92915050565b6000604082019050611cad60008301856119ad565b611cba60208301846119ad565b9392505050565b6000608082019050611cd660008301876119ad565b611ce360208301866119ad565b611cf060408301856119ad565b611cfd60608301846114ba565b95945050505050565b6000602082019050611d1b60008301846119d3565b92915050565b6000819050602082019050919050565b600081519050919050565b6000602082019050919050565b600082825260208201905092915050565b600081905092915050565b600082825260208201905092915050565b6000611d8182611ed3565b9150611d8c83611ed3565b9250827fffffffffffffffffffffffffffffffffffffffffffffffffffffffffffffffff03821115611dc157611dc0611f78565b5b828201905092915050565b6000611dd782611ed3565b9150611de283611ed3565b925082611df257611df1611fa7565b5b828204905092915050565b6000611e0882611ed3565b9150611e1383611ed3565b9250817fffffffffffffffffffffffffffffffffffffffffffffffffffffffffffffffff0483118215151615611e4c57611e4b611f78565b5b828202905092915050565b6000611e6282611ed3565b9150611e6d83611ed3565b925082821015611e8057611e7f611f78565b5b828203905092915050565b6000611e9682611eb3565b9050919050565b60008115159050919050565b6000819050919050565b600073ffffffffffffffffffffffffffffffffffffffff82169050919050565b6000819050919050565b600060ff82169050919050565b6000611ef582611ed3565b91507fffffffffffffffffffffffffffffffffffffffffffffffffffffffffffffffff821415611f2857611f27611f78565b5b600182019050919050565b6000819050919050565b6000819050919050565b6000611f5282611ed3565b9150611f5d83611ed3565b925082611f6d57611f6c611fa7565b5b828206905092915050565b7f4e487b7100000000000000000000000000000000000000000000000000000000600052601160045260246000fd5b7f4e487b7100000000000000000000000000000000000000000000000000000000600052601260045260246000fd5b611fdf81611e8b565b8114611fea57600080fd5b50565b611ff681611ed3565b811461200157600080fd5b5056fea26469706673582212207a35085d7e95e2486cda78c798dbecb58001037e8a9248f53b97a3c10cfb6ef164736f6c63430008000033",
  "immutableReferences": {},
  "source": "// SPDX-License-Identifier: MIT\npragma solidity ^0.8.0;\n\n/**\n * @title DecentralizedProgressiveJackpotRaffle\n * @dev A decentralized raffle system with a progressive jackpot\n */\ncontract DecentralizedProgressiveJackpotRaffle {\n    // State variables\n    address public owner;\n    uint256 public ticketPrice;\n    uint8 public jackpotPercentage;\n    uint256 public maxTicketsPerPurchase;\n    uint256 public endTime;\n    uint256 public totalTickets;\n    uint256 public jackpotAmount;\n    uint256 public platformFees;\n    bool public raffleEnded;\n    address public winner;\n    uint256 public winningTicketId;\n    uint256 public claimPeriod;\n    bool public jackpotClaimed;\n\n    // Mapping to track tickets owned by addresses\n    mapping(address => uint256[]) public ticketsByOwner;\n    // Mapping from ticket ID to owner address\n    mapping(uint256 => address) public ticketOwner;\n    // Array of all tickets for winner selection\n    uint256[] private allTickets;\n\n    // Events\n    event TicketsPurchased(address indexed buyer, uint256 startTicketId, uint256 amount);\n    event RaffleEnded(uint256 indexed winningTicketId, address indexed winner);\n    event JackpotClaimed(address indexed winner, uint256 amount);\n    event JackpotUnclaimed(uint256 amount);\n\n    // Modifiers\n    modifier onlyOwner() {\n        require(msg.sender == owner, \"Only owner can call this function\");\n        _;\n    }\n\n    modifier raffleActive() {\n        require(!raffleEnded, \"Raffle has already ended\");\n        require(block.timestamp < endTime, \"Raffle time has expired\");\n        _;\n    }\n\n    modifier raffleOver() {\n        require(raffleEnded || block.timestamp >= endTime, \"Raffle is still active\");\n        _;\n    }\n\n    /**\n     * @dev Constructor to initialize the raffle parameters\n     * @param _ticketPrice Price of each ticket in wei\n     * @param _jackpotPercentage Percentage of ticket price that goes to jackpot (1-99)\n     * @param _maxTicketsPerPurchase Maximum tickets that can be purchased in a single transaction\n     * @param _raffleDuration Duration of the raffle in seconds\n     * @param _claimPeriod Time window for winner to claim the prize in seconds\n     */\n    constructor(\n        uint256 _ticketPrice,\n        uint8 _jackpotPercentage,\n        uint256 _maxTicketsPerPurchase,\n        uint256 _raffleDuration,\n        uint256 _claimPeriod\n    ) {\n        require(_ticketPrice > 0, \"Ticket price must be greater than zero\");\n        require(_jackpotPercentage > 0 && _jackpotPercentage < 100, \"Jackpot percentage must be between 1 and 99\");\n        require(_maxTicketsPerPurchase > 0, \"Max tickets per purchase must be greater than zero\");\n        require(_raffleDuration > 0, \"Raffle duration must be greater than zero\");\n        require(_claimPeriod > 0, \"Claim period must be greater than zero\");\n\n        owner = msg.sender;\n        ticketPrice = _ticketPrice;\n        jackpotPercentage = _jackpotPercentage;\n        maxTicketsPerPurchase = _maxTicketsPerPurchase;\n        endTime = block.timestamp + _raffleDuration;\n        claimPeriod = _claimPeriod;\n        raffleEnded = false;\n        jackpotClaimed = false;\n    }\n\n    /**\n     * @dev Function to purchase raffle tickets\n     * @param numTickets Number of tickets to purchase\n     */\n    function purchaseTickets(uint256 numTickets) external payable raffleActive {\n        require(numTickets > 0, \"Must purchase at least one ticket\");\n        require(numTickets <= maxTicketsPerPurchase, \"Cannot purchase more than maximum tickets per transaction\");\n        require(msg.value == ticketPrice * numTickets, \"Incorrect ETH amount sent\");\n\n        // Calculate jackpot contribution and platform fee\n        uint256 jackpotContribution = (msg.value * jackpotPercentage) / 100;\n        uint256 platformFee = msg.value - jackpotContribution;\n\n        // Update state\n        jackpotAmount += jackpotContribution;\n        platformFees += platformFee;\n\n        // Assign tickets to the buyer\n        uint256 startTicketId = totalTickets;\n        for (uint256 i = 0; i < numTickets; i++) {\n            uint256 ticketId = totalTickets + i;\n            ticketsByOwner[msg.sender].push(ticketId);\n            ticketOwner[ticketId] = msg.sender;\n            allTickets.push(ticketId);\n        }\n\n        totalTickets += numTickets;\n\n        emit TicketsPurchased(msg.sender, startTicketId, numTickets);\n    }\n\n    /**\n     * @dev Function to end the raffle and select a winner\n     * Uses block hash as a source of randomness combined with other parameters\n     */\n    function endRaffle() external raffleOver {\n        require(!raffleEnded, \"Raffle has already ended\");\n        require(totalTickets > 0, \"No tickets were sold\");\n\n        raffleEnded = true;\n\n        // Get a random ticket using a hash of future block data as seed\n        uint256 randomSeed = uint256(\n            keccak256(\n                abi.encodePacked(\n                    blockhash(block.number - 1),\n                    block.timestamp,\n                    totalTickets,\n                    jackpotAmount\n                )\n            )\n        );\n\n        winningTicketId = allTickets[randomSeed % totalTickets];\n        winner = ticketOwner[winningTicketId];\n\n        emit RaffleEnded(winningTicketId, winner);\n    }\n\n    /**\n     * @dev Function for the winner to claim the jackpot\n     */\n    function claimJackpot() external {\n        require(raffleEnded, \"Raffle has not ended yet\");\n        require(msg.sender == winner, \"Only the winner can claim the jackpot\");\n        require(!jackpotClaimed, \"Jackpot has already been claimed\");\n\n        jackpotClaimed = true;\n        uint256 amount = jackpotAmount;\n        jackpotAmount = 0;\n\n        // Transfer the jackpot to the winner\n        (bool success, ) = payable(winner).call{value: amount}(\"\");\n        require(success, \"Failed to send jackpot to winner\");\n\n        emit JackpotClaimed(winner, amount);\n    }\n\n    /**\n     * @dev Function for the owner to handle unclaimed jackpot after claim period\n     */\n    function handleUnclaimedJackpot() external onlyOwner {\n        require(raffleEnded, \"Raffle has not ended yet\");\n        require(!jackpotClaimed, \"Jackpot has already been claimed\");\n        require(block.timestamp > endTime + claimPeriod, \"Claim period not yet expired\");\n\n        uint256 amount = jackpotAmount;\n        jackpotAmount = 0;\n        jackpotClaimed = true;\n\n        // Transfer unclaimed jackpot to owner\n        (bool success, ) = payable(owner).call{value: amount}(\"\");\n        require(success, \"Failed to send unclaimed jackpot to owner\");\n\n        emit JackpotUnclaimed(amount);\n    }\n\n    /**\n     * @dev Function for the owner to withdraw platform fees\n     */\n    function withdrawPlatformFees() external onlyOwner {\n        uint256 amount = platformFees;\n        platformFees = 0;\n\n        // Transfer platform fees to owner\n        (bool success, ) = payable(owner).call{value: amount}(\"\");\n        require(success, \"Failed to send platform fees to owner\");\n    }\n\n    /**\n     * @dev Function to get tickets owned by an address\n     * @param player Address of the player\n     * @return uint256[] Array of ticket IDs owned by the player\n     */\n    function getTicketsByOwner(address player) external view returns (uint256[] memory) {\n        return ticketsByOwner[player];\n    }\n\n    /**\n     * @dev Function to get the current raffle state\n     * @return uint256 Total tickets sold\n     * @return uint256 Current jackpot amount\n     * @return uint256 Time remaining until raffle ends\n     * @return bool Whether raffle has ended\n     */\n    function getRaffleState() external view returns (\n        uint256,\n        uint256,\n        uint256,\n        bool\n    ) {\n        uint256 timeRemaining = 0;\n        if (!raffleEnded && block.timestamp < endTime) {\n            timeRemaining = endTime - block.timestamp;\n        }\n        \n        return (\n            totalTickets,\n            jackpotAmount,\n            timeRemaining,\n            raffleEnded\n        );\n    }\n}",
  "sourcePath": "/home/musaddiq/blockchain/raffle-project/contracts/DecentralizedProgressiveJackpotRaffle.sol",
  "compiler": {
    "name": "solc",
    "version": "0.8.0+commit.c7dfd78e.Emscripten.clang"
  },
  "schemaVersion": "3.4.16",
  "updatedAt": "2025-04-19T07:12:16.816Z",
  "networkType": "ethereum",
  "devdoc": {
    "details": "A decentralized raffle system with a progressive jackpot",
    "kind": "dev",
    "methods": {
      "claimJackpot()": {
        "details": "Function for the winner to claim the jackpot"
      },
      "constructor": {
        "details": "Constructor to initialize the raffle parameters",
        "params": {
          "_claimPeriod": "Time window for winner to claim the prize in seconds",
          "_jackpotPercentage": "Percentage of ticket price that goes to jackpot (1-99)",
          "_maxTicketsPerPurchase": "Maximum tickets that can be purchased in a single transaction",
          "_raffleDuration": "Duration of the raffle in seconds",
          "_ticketPrice": "Price of each ticket in wei"
        }
      },
      "endRaffle()": {
        "details": "Function to end the raffle and select a winner Uses block hash as a source of randomness combined with other parameters"
      },
      "getRaffleState()": {
        "details": "Function to get the current raffle state",
        "returns": {
          "_0": "uint256 Total tickets sold",
          "_1": "uint256 Current jackpot amount",
          "_2": "uint256 Time remaining until raffle ends",
          "_3": "bool Whether raffle has ended"
        }
      },
      "getTicketsByOwner(address)": {
        "details": "Function to get tickets owned by an address",
        "params": {
          "player": "Address of the player"
        },
        "returns": {
          "_0": "uint256[] Array of ticket IDs owned by the player"
        }
      },
      "handleUnclaimedJackpot()": {
        "details": "Function for the owner to handle unclaimed jackpot after claim period"
      },
      "purchaseTickets(uint256)": {
        "details": "Function to purchase raffle tickets",
        "params": {
          "numTickets": "Number of tickets to purchase"
        }
      },
      "withdrawPlatformFees()": {
        "details": "Function for the owner to withdraw platform fees"
      }
    },
    "title": "DecentralizedProgressiveJackpotRaffle",
    "version": 1
  },
  "userdoc": {
    "kind": "user",
    "methods": {},
    "version": 1
  }
}